:020000040800F2
:10000000D805002019280008A1260008A32600080A
:10001000A5260008A7260008A92600080000000061
:10002000000000000000000000000000AB260008F7
:10003000AD26000800000000AF260008B126000829
:100040004128000845280008492800084D280008D4
:100050005128000855280008592800085D28000884
:100060006128000865280008692800086D28000834
:100070007128000875280008792800087D280008E4
:100080008128000885280008892800088D28000894
:100090009128000895280008992800089D28000844
:1000A000B5260008B9260008C1260008C3260008A6
:1000B000A1280008A5280008A9280008AD280008E4
:1000C000B1280008B5280008B9280008BD28000894
:1000D000C5260008C1280008CB260008C52800084E
:1000E000C9280008CD280008D1280008D528000814
:1000F000D9280008DD280008E1280008E5280008C4
:10010000E9280008ED280008F1280008F528000873
:10011000F9280008FD280008012900080529000821
:10012000092900080D2900081129000815290008CF
:10013000192900081D29000821290008252900087F
:10014000292900082D29000831290008352900082F
:10015000392900083D2900084129000845290008DF
:10016000492900084D29000851290008552900088F
:10017000592900085D2900086129000800000000D5
:10018000652900086929000838B5040001D101205B
:1001900032BD00F027F818B900F085F900F089FBAE
:1001A000FFE702206870211D206800F080F901201F
:1001B000A8720121A970E87029716871A971E871AC
:1001C000297268726970002032BD38B5040001D10F
:1001D000012032BD00F006F818B900F064F900F013
:1001E00063FCDEE704F13C056878704770B50446AF
:1001F0002068C5680669B10714D5AA0712D56FF043
:100200000201016101222277806910F0030F20466C
:1002100002D000F04AFC03E000F048FC00F07BF85C
:1002200000202077700715D5690713D520686FF077
:100230000402026102212177806910F4407F204688
:1002400002D000F032FC03E000F030FC00F063F874
:1002500000202077300715D5290713D520686FF0C7
:100260000802026104212177C06910F0030F2046C3
:1002700002D000F01AFC03E000F018FC00F04BF88C
:1002800000202077F00615D5E90613D520686FF019
:100290001002026108212177C06910F4407F2046D6
:1002A00002D000F002FC03E000F000FC00F033F8A4
:1002B0000020207706F0010105F00100014206D080
:1002C00020686FF001010161204600F0F0FB30066C
:1002D00008D5290606D522686FF0800010612046F7
:1002E00000F0E6FB700608D5690606D522686FF0B7
:1002F00040001061204600F0DCFBB0060AD5A906DC
:1003000008D522686FF0200010612046BDE87040DB
:1003100000F0D0BB70BD204600F0CDBB002084F8BB
:100320003C002846704770B500F058F801D1022013
:1003300070BD012084F83C0032B1042A15D0082A8F
:1003400025D00C2A34D045E0206800F0FFF8216861
:10035000886940F008008861886920F0040088619D
:100360008A69306902438A6135E0206800F01AF931
:100370002068816941F400618161816921F48061B3
:1003800081618169326941EA0221816123E020684B
:1003900000F038F92168C86940F00800C861C869F0
:1003A00020F00400C861CA6930690243CA6112E0E2
:1003B000206800F056F92068C16941F40061C1610C
:1003C000C16921F48061C161C169326941EA0221D8
:1003D000C16100E00125FFF7A1FF70BD04460025C3
:1003E00094F83C0001280E46704770B5064606F1A9
:1003F0003C0500242878012801D1022070BD01208D
:10040000287002226A70DFF8A00232689368034005
:1004100093600868020018BF102830D0202818BF49
:1004200030282CD0402826D0502819D060281BD046
:10043000702806D0B0F5805F27D0B0F5005F07D0F8
:1004400022E000F02BF83068816841F0770105E088
:1004500000F024F83068816841F48041816014E044
:1004600000F018F850210BE0CA684968306800F0C5
:1004700042F9602104E000F00DF8402100E001465F
:10048000306800F04AF900E001240120687000F0B3
:100490000AF870BDCA68496830681DE1CB684A68CF
:1004A0008968306841E10021297020467047F0B525
:1004B00005687E4C7E4B7F4E7F4FDFF800C2A04226
:1004C00018BFB0F1804F07D0604518BFB84203D0C5
:1004D000B04218BF98420DD14A6825F07005154307
:1004E000A04218BFB0F1804F17D060451CBFB84282
:1004F000B04212D098421CBF714A90420DD0714E4A
:10050000B0421CBF704A904207D0704EB0421FBF2D
:100510006F4A90426F4EB04203D1CA6825F44075CD
:1005200015434A698E68C66225F0800515430A683E
:100530008262A04212BF984209690163026842F0D8
:1005400004020260012141610560F0BDF0B5066A58
:10055000026A564F52085200026226F002064468B0
:1005600085690B688A6825F073051D431643504B57
:10057000B84218BF984207D1CA6826F00806164349
:10058000B84226F0040601D0984205D14B698A6929
:1005900024F440741C4314434460856149684163FA
:1005A0000662F0BDF0B5056A026A404E22F0100204
:1005B000026225F02005436884690A6824F4E64451
:1005C00044EA02248A6845EA0215394AB04218BF53
:1005D000904208D1CF6825F0800545EA0715B04262
:1005E00025F0400501D0904206D14E698A6923F476
:1005F0004063164343EA860343608461496881632C
:100600000562F0BDF0B5056A026A22F480720262EA
:1006100025F400754368C4698E680A6824F0730481
:1006200045EA06251443214E214AB04218BF9042A4
:1006300008D1CF6825F4006545EA0725B04225F4C6
:10064000806501D0904206D14E698A6923F44053F7
:10065000164343EA06134360C4614968C1630562F7
:10066000F0BD70B5046A026A104E22F48052026234
:1006700024F400544268C3690D6823F4E64343EA56
:1006800005238D6844EA0534B0421CBF084DA842DA
:1006900004D14D6922F4804242EA85124260C3616E
:1006A00049680164046270BD8800FFFF00000140DA
:1006B00000040140000C004000080040000400401D
:1006C0000040014000440140004801400018004043
:1006D000001C00400020004010B5036A046A640852
:1006E0006400046223F00A03846924F0F00444EAFD
:1006F0000214846123E010B5036A046A24F0100434
:10070000046223F0A003846924F4704444EA0234B0
:10071000846143EA0113036210BD826822F0700213
:10072000114341F007018160704710B5846824F4DB
:100730007F442143114341EA0321816010BD1943E5
:10074000016210BD81B0002000900022DFF8240378
:10075000416841F480414160416801F48041009169
:1007600000990092036843F080530360006800F032
:1007700080500090009801B0704710B586B000F02E
:10078000FFF82168DFF8F00281421DD10022DFF876
:10079000EC020092416941F480714161416901F4C8
:1007A000807100F015F92E21036843F00103036006
:1007B000032200F0AEF8DFF8C80201910292002196
:1007C000039101A900F078F906B010BD10B586B00C
:1007D00000F0D6F82168DFF8B002814223D1002270
:1007E000DFF8984200921222206840F00200206058
:1007F000216801F0020100914FF440710098A34874
:1008000000F051F804210591049201A900F054F977
:1008100000200090216941F400112161206900F459
:1008200000100090009806B010BD10B586B000F022
:10083000A7F821689648814233D100228F48934C13
:100840000092016941F480410161016901F4804134
:1008500000F0BEF84FF40441036843F00203036064
:100860000222006800F002000090009800F01BF8DF
:1008700005210591049200F07FF8022102910122E6
:1008800003924FF48040032101900491052200F06F
:1008900072F800220021242000F02EFA242000F01B
:1008A00049FA06B010BD0191029200210391032282
:1008B000704700687749884200D0704780B50022B1
:1008C00070480092016841F001010160002100F0D0
:1008D00020F8182000F010FA182000F02BFA00225F
:1008E0000021192000F008FA192000F023FA002254
:1008F00000211A2000F000FA1A2000F01BFA002252
:1009000000211B2000F0F8F9BDE802401B2000F098
:1009100011BA006800F0010000900098704710B50F
:1009200086B000F02DF821685A48814221D100227A
:100930005248594C00920222016841F010010160B6
:100940004FF40071006800F01000009000980292CF
:10095000039201910122049200F00DF8002203920B
:1009600004924FF40060022101900291012200F0F4
:1009700002F806B010BD059201A9204600F09CB80F
:1009800004461422002101A800F0FEB910B586B07B
:10099000FFF7F6FF21684148814217D100F05AF86D
:1009A00041F400310161016901F4003100F010F8F7
:1009B000602100F044F83A4800F051F8002200218C
:1009C000262000F099F9262000F0B4F906B010BDF9
:1009D000009100990092704710B586B0FFF7D0FFE4
:1009E00021683048814228D100F034F841F4802158
:1009F0000161016901F48021FFF7EAFF036843F018
:100A000002030360016801F00201FFF7E1FF4FF408
:100A1000006100F014F81D4800F021F80221029155
:100A2000002203924FF4A060032101900491072259
:100A3000059201A91A4800F03FF806B010BD0368FE
:100A400043F0080303600222006800F008000090F1
:100A5000009870470022094800920169704701918F
:100A6000029200210391032207210591049201A91A
:100A700000F022B8403802400020014030380240E7
:100A8000000002404438024000540040000402408C
:100A900000380040000001400010024000440040C7
:100AA000000C024000480040704770477047704794
:100AB00070477047704770472DE9F84F0D46002684
:100AC0007549764A0F23044601202F68B04000EA9A
:100AD0000708804540F0D5804FEA460C032707FA07
:100AE0000CF76FEA070E6F6807F00309B9F1010F01
:100AF0001CBF07F00307022F12D1A768D5F80C908E
:100B00000EEA070709FA0CF949EA0707A7606768C0
:100B100027EA00006F68C7F30017B74038436060EA
:100B2000B0002F7907F00307032F21D0E768D5F82D
:100B300008900EEA070709FA0CF949EA0707E76087
:100B40002F7907F00307022F12D1F70804EB87076C
:100B500000F01C09D7F820A003FA09FB2AEA0B0AC7
:100B6000D5F810B00BFA09F949EA0A09C7F820903C
:100B700027680EEA070E2F7907F0030707FA0CF72C
:100B800047EA0E0CC4F800C06F6817F4403F78D0F5
:100B90004FF0000ECDF800E04FEA960C176847F4CE
:100BA0008047176000F00C00D2F800E03C4F0EF4D4
:100BB000804ECDF800E0DDF800E057F82C7003FA25
:100BC00000FE27EA0E0E374FBC4208BF002722D096
:100BD000354FBC4208BF01271DD0344FBC4208BF6F
:100BE000022718D0324FBC4208BF032713D0314F21
:100BF000BC4208BF04270ED02F4FBC4208BF0527B8
:100C000009D02E4FBC4208BF062704D02C4FBC424F
:100C10000CBF0727082707FA00F040EA0E00DFF8AC
:100C200080E04EF82C006FEA0800D1F808C06F6829
:100C300000EA0C0CFF0248BF48EA0C0CC1F808C0DF
:100C4000D1F80CC06F6800EA0C0CBF0248BF48EA3C
:100C50000C0CC1F80CC0D1F804C06F6800EA0C0C91
:100C6000BF0348BF48EA0C0CC1F804C0D1F800C06B
:100C700000EA0C0C6868C00348BF48EA0C0CC1F8D5
:100C800000C0761C0F2E7FF61FAFBDE8F18F02B9B2
:100C90000904816170470000003C01404438024073
:100CA00008380140000002400004024000080240F1
:100CB000000C0240001002400014024000180240E4
:100CC000001C02400901020002D4284881547047E8
:100CD000274B02F00F021A4402F8041C7047254B00
:100CE00019684FF6FF020002114000F4E06008436B
:100CF000214908431860704770B51E4B1C68C4F347
:100D000002230124C3F10705052D2EBF0F2504FA88
:100D100005F56D1E1E1D072E34BF0023DB1E294066
:100D2000994004FA03F3BDE870405B1E1A4011437A
:100D3000C8E70000010007D4012200F01F010F4B9B
:100D40008A40400943F820207047401EB0F1807F60
:100D500001D3012070470A490A4A48600023F02065
:100D600010708B60072008600020704700E400E0EE
:100D700018ED00E00CED00E00000FA0500E100E0F5
:100D800010E000E023ED00E010B5044610460A46EE
:100D90000146204600F002F8204610BD62F30F2203
:100DA00062F31F42401810F0030308D0C91A1FD382
:100DB000DB0748BF00F8012D28BF20F8022D1300E3
:100DC00030B414461546103928BF20E93C00FAD843
:100DD000490728BF20E90C0048BF40F8042D8900CE
:100DE00028BF20F8022D48BF00F8012D30BC704705
:100DF000C91818BF00F8012DCB0728BF00F8012D36
:100E000070470EE002684368024408305FEAC37C22
:100E100044BF4B445B1E52F804CB43F804CB091F7C
:100E2000F9D150F8041B0029ECD1704738B5040003
:100E300001D1012032BD00F01BF808B900F01CF808
:100E400000F01FF800F027F8FFE7416100F001F81B
:100E500032BD2068C16841F40051C1600020686063
:100E6000202169702020A870002161630020704754
:100E700004F1400568787047002129702046FFF78B
:100E800085BD242068702068C16821F40051C160CC
:100E9000204600F029BA2068016921F490410161DF
:100EA0002068416921F02A017047216801F114028C
:100EB00052E8001F206800F1140321F0400143E8CC
:100EC000001000287047F8B5044625682A682846AF
:100ED0000146C6684B6912F00F0F02F0200106F0C0
:100EE000200007D1002918BF00285DD02046BDE8AA
:100EF000F24091E1DF0702D416F4907F54D0D50779
:100F000005D5F60503D5656C45F001056564550703
:100F100005D5DE0703D5656C45F0020565649507C8
:100F200005D5DE0703D5656C45F004056564120739
:100F300006D508B9DA0703D5636C43F00803636488
:100F4000626C002A2FD000291EBF0028204600F026
:100F500063F920684069616C0A0701D440061DD519
:100F6000204600F032F920684169480611D5FFF7A4
:100F70009CFFFCD1E06B60B10FF291210165E06B49
:100F800000F054FA00280ED0E06B016DBDE8F4408B
:100F900008472046BDE8F24000F06DBA204600F058
:100FA0006AFA00206064F1BD206B012804F141035E
:100FB00040F09A80D00600D5F10640F195800022DD
:100FC000009229680091226850680090009920687A
:100FD000A18D426950064BD5E26B1068406880B223
:100FE00000283BD0884239DAE085D069B0F5807FAF
:100FF0002DD0216801F10C0050E8001F226802F199
:101000000C0521F4807145E800100028F1D100F0B2
:10101000AAF8490800F11405490045E80010002825
:10102000F5D100F0A0F800F1140521F0400145E8E9
:1010300000100028F5D1202058700021216300F015
:1010400098F800F0B4F8FAD1E06B00F0B3F90220A0
:101050006063A18DE08D091A89B207E0884204BF60
:10106000D069B0F5807F7DD102226263204637E0EF
:10107000E28DE08D891A00281CBF88B2002871D04B
:101080002246106800F10C0454E8004F00F10C06F1
:1010900024F4907446E800400028F2D1106800F172
:1010A000140454E8004F640800F11406640046E894
:1010B00000400028F2D120205870002313631068EC
:1010C00000F10C0353E8003F00F10C0523F010037E
:1010D00045E800300028F2D10220506389B2104662
:1010E000BDE8F44000F0C8B910062BD5310629D56B
:1010F0001878212836D1A068B0F5805F04BF206938
:10110000002809D1206A01882A46C1F308015160EC
:10111000206A811C216205E0206A411C216222684C
:1011200000785060E08C401EE08480B2D0B9206826
:10113000C16821F08001C1602068C16841F04001B0
:10114000C160F1BD50060DD571060BD52846C168AA
:1011500021F04001C160204620211970BDE8F24015
:1011600000F08BB9F1BD206800F1140151E8001FB7
:101170007047206800F10C0151E8001F00F10C03DA
:101180007047026802F10C0151E8002F036803F177
:101190000C047047016801F1140252E8002F520854
:1011A00001F11404520044E800210029704721F0A5
:1011B000100143E8001000287047016801F10C029B
:1011C00052E8002F01F10C04704710B5FFF7F5FF4E
:1011D00022F4907200F016F8F8D1FFF7DBFFFCD193
:1011E000016B012906D1FFF7CCFF22F0100200F0BD
:1011F00009F8F8D1202180F842100022026310BDC6
:1012000022F4807244E8002100297047806B00219D
:10121000C18500F030B900001CB590F842102229B9
:1012200052D18168826AB1F5805F0AD1016969B9DA
:1012300003685968C1F308011180826A911C8162B8
:101240000FE0002904BF0169002902D10368596831
:1012500003E00168496801F07F011170816A4A1C4E
:101260008262C18D491EC18589B259BB0168CA68B5
:1012700022F02002CA600168CA6822F48072CA6043
:1012800001684A69520852004A61202180F84210E0
:1012900000224263016B012912D1026300F016F8AB
:1012A00002681168CB0607D50024009412680092EA
:1012B000036859680091009A818D00F0DDF801E023
:1012C00000F0DCF8002016BD022016BD016801F117
:1012D0000C0252E8002F01F10C0422F0100244E845
:1012E00000210029F2D1704770B5044622681169C7
:1012F000E06821F4405101431161D3682748A16897
:10130000034020690B4361690343E0690B430343D6
:10131000D3605169A06921F44071014351612049B2
:101320008A421CBF1F48824202D100F037F901E017
:1013300000F02CF962682568E4691921B4F5004FC2
:10134000A1FB00016FF0630612D1D30F520000F031
:101350003DF900F029F8F60032366420B6FBF0F0D3
:10136000420002F4F87202EB011200F0070010E0F4
:10137000930F920000F02AF900F016F83601323689
:101380006420B6FBF0F000F0F00202EB011200F076
:101390000F008018A86070BD00000000F369FFFF17
:1013A00000100140001401406421B0FBF1F106FB84
:1013B00001067047F8B5044604F134056E6A00F082
:1013C00089F907466878022805D080212962002023
:1013D00028700120F2BD2068016821F0160101602B
:1013E00000F036F8E868002804BF6869002801D0DA
:1013F00000F03AF800F032F820680168CA070CD50E
:1014000000F068F9C01B0628F6D3202028620321CB
:101410006970002028700320F2BDA86A3F21814036
:10142000B1600020012169702870F2BD90F835107C
:10143000022903D08022426501207047052180F8EF
:1014400035100068026852085200026000207047A0
:101450002068416921F0800141617047206801687E
:1014600049084900016070472068016821F00801BF
:101470000160704700007047704770477047000078
:101480002DE9F04104000F4654D0494E306800F079
:101490000700B84202D200F073F84BD12068454DE6
:1014A000810712D5400703D5A96841F4E051A9602E
:1014B0002078010703D5A86840F46040A860A968B7
:1014C000A06821F0F0010143A9602178C80729D55F
:1014D0006068012802D129688A0305E0022818BF44
:1014E000032803D129688A0103D423E029688A07E5
:1014F00020D5A968890840EA8100A86000F0EAF8D0
:101500008046A868616800F00C00B0EB810F09D03C
:1015100000F0E0F8A0EB080041F289318842F0D3F6
:1015200003202BE0306800F00700874204D200F06F
:1015300027F801D0012021E02078410705D5AA68CD
:10154000E06822F4E0520243AA602178080706D539
:10155000A968206921F4604141EAC001A96000F056
:10156000BFF8AA681449154BC2F30312895CC8403E
:1015700018601348006800F0E3F80020BDE8F0812F
:101580003770316801F00701B94270470B480D4AC6
:10159000006813680C49C3F3822206E00748094A31
:1015A000006813680849C3F34232895CC840704739
:1015B000003C024000380240A42700080C00002034
:1015C000080000200838024038280008D3BBD9B1F1
:1015D000B2F5803F5BD2022A1ED98C46B1FBF2F1F4
:1015E00002FB11C31B0443EA1043B3FBF2FC02FBF2
:1015F0001C3380B240EA0343B3FBF2F002FB10322B
:1016000040EA0C4000237047022A05D98446B0FB0B
:10161000F2F002FB10C270474AB105D100F001029E
:1016200049085FEA3000704700220023704700F04D
:10163000A7B80B000200002100207047F7D300225A
:1016400000237047904271EB030CF2D370B5B1FAEE
:1016500081F4B3FA83F52C1BA340C4F1200532FAC0
:1016600005F63343A2405FF00046E64002E05B0827
:101670005FEA3202841A71EB030524BF2046294633
:101680007641F4D302000B003000002170BD70B52C
:10169000B1FA81F4B2FA82F5C4F120046419B4F10C
:1016A0002006DAD3B2405FF00044F440002502E0A7
:1016B00052085FEA3303C61A71EB020E24BF3046AC
:1016C000714664416D41F3D302000B0020002900F4
:1016D00070BD000001484068704700BF0000002056
:1016E00030B5144C606800F00C00042802D00828C3
:1016F00002D01DE0104830BD22682068002341025E
:1017000002F03F0204D525680B49C5F3881003E0B9
:1017100020680A49C0F38810A1FB0001FFF756FFBB
:101720002168C1F30141491C4900B0FBF1F030BD13
:10173000024830BD0438024000127A000024F40050
:1017400038B50D4D0D4B2A7804464FF47A71186860
:10175000B1FBF2F2B0FBF2F0FFF7F7FA50B9102C40
:1017600008D2002221464FF0FF30FFF7C5FAAC60E7
:10177000002032BD012032BD000000200C000020FE
:10178000704700002DE9F84795B000F0F9F900F036
:1017900085F9142200F07EF9002005904FF40058DE
:1017A000DFF89C03DFF89C630168DFF89C5341F08D
:1017B000040101604FF4805A026802F004020592AD
:1017C000002205990592036843F0800303600168D5
:1017D00001F0800100F059F943F001030360016852
:1017E00001F0010100F051F943F0100303600168BA
:1017F00001F0100100F049F943F0020303600168B1
:1018000001F002010591059905924FF4204103680A
:1018100043F008030360006800F008000590059895
:101820003046FFF734FA00224FF440512846FFF7C4
:101830002EFA10204FF4881100900191002202929C
:101840006946C248FFF738F900F019F9CDF8008071
:1018500069463046FFF730F90122019202924FF4B7
:10186000004100910022039269463046FFF724F9B7
:1018700000F005F9CDF800A069462846FFF71CF9ED
:101880000121019102910391CDF80080694628461B
:10189000FFF712F9102200F0FDF8AD4DAD482860B9
:1018A00005F13006AC48A8624FF4803101200022D7
:1018B000E86168616960AA602A612A7685F820205B
:1018C000EA62EA603270284600F074F908B100F06C
:1018D00055F90120009001900022029269462846A5
:1018E00000F01DFA08B100F049F99C489C493067A6
:1018F00071670020B06705F1B0074FF48040002108
:101900003860F1677960B960F960396105F1A0006C
:1019100000F0AAFA08B100F031F91022002111A854
:10192000FFF732FA082200F0B5F81C22002102A8C5
:10193000FFF72AFA2022002109A8FFF725FA05F56A
:101940009C748848A0640021E164002020654FF663
:10195000FF716165A065E065206605F5C0794846C0
:10196000FEF712FC08B100F009F9CDF844A011A966
:101970004846FEF73AFD08B100F000F94846FEF788
:1019800024FC08B100F0FAF80021009101914846CA
:10199000694600F013FB08B100F0F0F86020002168
:1019A00002900391002205910791049206920892F9
:1019B00002A94846FEF7B7FC08B100F0DFF80422A0
:1019C00002A94846FEF7AFFC08B100F0D7F80021A5
:1019D00009910A910B910C910D911091CDF83880DD
:1019E00009A9484600F030FB08B100F0C7F84846A6
:1019F000FEF795FF5C4820604FF4E138C4F804809E
:101A00000021A160E16021610C206061A161E161C0
:101A10002046FFF70BFA08B100F0B0F8534878649D
:101A200000210C20B865F96439657965F965396676
:101A30007966C7F8488005F1F40000F02FFB08B183
:101A400000F09CF84A48B0614FF482710020306287
:101A50007062B062F062F1614FF40070306328216F
:101A600071630020B063F06330640A21716405F192
:101A7000480000F08FFB08B100F080F8FEE701217C
:101A800001910022029203927047059105990592F7
:101A90000368704700216846FFF776B980B592B0B9
:101AA0003022002106A8FFF76FF91422002101A8B7
:101AB000FFF76AF9002000902E48016841F080513C
:101AC00001600021006800F08050009000982A48D2
:101AD00000910221026842F4804202600122006803
:101AE00000F48040009000980691099210210A911C
:101AF000022200210C920D910822A8210E920F9132
:101B0000022204211092119106A800F037FC08B1BE
:101B100000F034F802210291002203920F204FF4CA
:101B2000A051019004914FF480520592052101A823
:101B3000FFF7A6FC08B100F021F813B000BD0000CB
:101B40003038024000100240000402400000024011
:101B500010000020002001400100000F0054004050
:101B6000A086010000000140004400400048004001
:101B700000380040403802400070004072B6FEE776
:101B800080B50B48016841F400710160026842F4BD
:101B900080620260016841F4807101600320FFF7F8
:101BA0009EF80F20FFF7CCFDFEF7CCFD002002BD14
:101BB000003C024070B5044600250CB9012070BD00
:101BC00004F13006306928B92046FEF7D6FD002022
:101BD000706130733069C10600F192803069DFF8BE
:101BE000741220F4885040F002003061086820F43C
:101BF000403008600A68606802430A6020684168F3
:101C000021F48071416020684168226941EA022123
:101C100041602068416821F04071416021684A6854
:101C2000A06802434A602068816821F400618160F5
:101C300021688A68E06802438A602068A16ADFF848
:101C400018229142816821F0706181600CD0216876
:101C50008A68A06A02438A6000F05BF821688A689B
:101C6000E06A02438A6001E000F053F8206881686E
:101C700021F0020100F049F8227E41EA4201816030
:101C800094F820002168002848680FD040F40060D4
:101C900048602068416821F46041416020684168E3
:101CA000626A521E41EA4231416002E020F4006063
:101CB00048602068C16A21F47001C1622068C16A6D
:101CC000E269521E41EA0251C1622068816821F432
:101CD000007100F01AF8327841EA422100F015F85C
:101CE00021F4806100F011F8626941EA822181608B
:101CF000002070610120316960F30101316100E071
:101D0000012500203073284670BD816020688168FD
:101D100070472068816821F040518160704778B534
:101D200002460020009092F83C30012B01D10220A5
:101D300072BD012082F83C0007240B6810680A2B52
:101D400012D30A3BC56803EB43039C4025EA040415
:101D5000C460C3680D688C68A5F10A0606EB4606E8
:101D6000B4402343C3600FE0056903EB430304FA67
:101D700003F325EA0303036103690D688C6805EB2F
:101D80004505AC40234303611F244B68072B0CD24D
:101D90005B1E456B00F050F84463436B4D680C8844
:101DA0006E1E00F044F843631BE00D2B0CD2DB1FCA
:101DB000056B00F041F80463036B4D680C88EE1F5F
:101DC00000F035F803630CE00D3BC56A00F034F811
:101DD000C462C36A4D680C88A5F10D0600F027F8AF
:101DE000C3621E4B98421DD10C681A48122C03D1B5
:101DF000036843F4800303600B68102B18BF112B9A
:101E000010D1036843F4000303600868102809D167
:101E10001449134C0B68B3FBF4F40A2044430094B8
:101E200000F010F8002182F83C10002072BD06EB93
:101E30008606B4402343704703EB83039C4025EAA6
:101E40000404704702E00098401E009000980028AB
:101E5000F9D17047042301400100000F0020014028
:101E600040420F000C000020F8B5040025D004F11A
:101E70003C05697821B9002028702046FEF7A6FCB1
:101E800024216970206802685208520002602068AC
:101E9000016841F4004101602068026822F40042B8
:101EA0000260FFF773FB01466068DFF8F82090429C
:101EB00005D2DFF8F430994205D20120F2BDDFF8F7
:101EC000EC008142F9D32068DFF8E4304668B1FBCA
:101ED000F3F3B60943EA861646602668376A6068F7
:101EE000904206D34FF4967043434FF47A70B3FB9D
:101EF000F0F35B1CBF0943EA87133362491E236872
:101F0000DE696768974206D27F0000F044F8042932
:101F100013D2042111E0A06820B907EB470700F0B5
:101F20003AF805E01920474300F035F841F48041C4
:101F300008050CBF012141F40041DFF8780006409C
:101F40000E43DE6122681368E169206A23F0C00352
:101F50000B43034313602268DFF85C009368216938
:101F60000340E0680B43034393602268D368A16990
:101F700060691B0A41EA03230343D36020680168B8
:101F800041F0010101600020686020216970206338
:101F90000021A970F2BDB1FBF7F1491CC1F30B019F
:101FA00070470000A186010080841E0000093D00EA
:101FB00040420F000030FFFF007CFFFF70B500F1D2
:101FC0003C031A78012A01D1022070BD01221A7047
:101FD00002245C7005686E68AC680A6826F07006BA
:101FE00016436E6002681148824218BFB2F1804FFA
:101FF00011D0114882421CBF104DAA420BD00D488F
:1020000082421CBF0E4DAA4205D0094882421CBF25
:102010000C4DAA4204D1486824F080040443946023
:10202000012159700020187070BD000000000140AF
:1020300000400140000C0040000400400008004047
:10204000000401400018004010B590F83C20012A1F
:1020500001D1022010BD012280F83C20CC688A68A2
:102060004B6824F44074144324F480641C430A68CD
:102070000B6924F40064144324F480541C434A691B
:10208000C96924F400541443026824F480440C43C6
:102090005464002380F83C30002010BDF8B50400E3
:1020A00001D10120F2BD04F13C07787820B900216C
:1020B00039702046FEF790FC0220787019262068BF
:1020C000C16821F00C01C1606FF0630522681369DB
:1020D000A169E06923F47C530B43216A0343E06860
:1020E0000B43034343F40063136122682649D3681A
:1020F000A0680B402169034360690B43034343F429
:102100000043D3602068416921F440714161206837
:102110001E4988421CBF1E4A904202D0FFF736FA81
:1021200001E0FFF73BFA0246A6FB02016268D30F0B
:102130005200FFF74BFA6421B0FBF1F105FB0105FA
:10214000ED0032356420B5FBF0F0420002F4F87285
:1021500002EB0112216800F00700801888602068F7
:10216000016921F4804101612068416921F02A015F
:1021700041612068C16841F40051C160002078606D
:1021800001217970F2BD0000F369FFFF00100140EA
:102190000014014038B5040001D1012032BD606A4D
:1021A00028B900F051F805D00021E16102E00020DB
:1021B000206160610020A06204F15005687820B9B8
:1021C000002129702046FEF730FB0220687000F0E5
:1021D000CFF86068A168E26800F4827001F40441FD
:1021E0000843217C02F400621043227D01F00201C9
:1021F0000843A16902F001021043227F01F400713B
:10220000084394F8201002F038021043A26A01F04B
:1022100080010843216802F4005210430860A0695D
:1022200094F824102268000C00F0040001F0100162
:10223000084350602068C16921F40061C161002039
:1022400068600121697032BD6068B0F5827F7047B7
:102250007CB5044622685168936803F04100012868
:1022600006D1480604D5216C2046BDE87C400847CD
:10227000980706D50D0604D5616C2046BDE87C4064
:10228000084713F4B07F64D0880662D55D060ED58A
:1022900094F8510003284FD0606D40F00400606551
:1022A00000250095D66800969568009500989D06D3
:1022B0000ED5606D40F001006065002500959268C4
:1022C000009220680568024625F0400515600098D8
:1022D000DA0509D5606D40F00800606500220092C3
:1022E000206882680092009B606D90B3206842680D
:1022F00022F0E0024260012011F0030F84F8510047
:1023000022D020680FF24D0541688908890041609C
:10231000E06C28B10565E06CFFF788F800F022F862
:10232000A06CB0B10565A06CFFF780F888B1606D56
:1023300040F04000606573BD00200090D1680091BE
:1023400092680092009873BD2046BDE8764000F088
:10235000A5B973BD806B0021C1870022C28600F041
:102360009DB9000018B1606D40F040006065704795
:102370002068016821F04001016070472DE9F843B1
:10238000040016D02078DFF80463C10713D5B068C5
:1023900000F00C00042807D0B06800F00C000828FA
:1023A0003DD1706841023AD53068810303D5606839
:1023B000002800F065812078B54F810719D5B068F5
:1023C00010F00C0F07D0B06800F00C0008285BD1AB
:1023D0007068410258D43068810703D5E06801284D
:1023E00040F04E813168206921F0F80141EAC001D6
:1023F00031602178080779D56069A649002868D03E
:1024000001220A60FFF766F90546706F81076DD4F7
:10241000FFF760F9401B0228F7D9032033E1606819
:10242000B0F5803F04D1306840F48030306011E076
:10243000B0F5A02F306806D140F4802030603168BC
:1024400041F4803105E020F480303060316821F4BF
:1024500080213160606858B1FFF73CF9054630686B
:102460008103A8D4FFF736F9401B6528F7D3D4E7DA
:10247000FFF730F90546306881039CD5FFF72AF94C
:10248000401B6528F7D3C8E7E068A8B1012139608F
:10249000FFF720F905463068810705D4FFF71AF9E0
:1024A000401B0228F7D9B8E73068216920F0F8000E
:1024B00040EAC10030609CE73860FFF70BF9054641
:1024C0003168880795D5FFF705F9401B0228F7D931
:1024D000A3E70860FFF7FEF80546706F810705D592
:1024E000FFF7F8F8401B0228F7D996E72078410754
:1024F00060D5306C0025C1000BD400200090012570
:10250000316C41F080513164306C00F080500090AB
:102510000098DFF88481D8F80000C10513D4D8F8FA
:10252000000040F48070C8F80000FFF7D3F881463F
:10253000D8F80000C10506D4FFF7CCF8A0EB0900DD
:102540000228F5D969E7A068012805D00528306F71
:1025500006D140F004003067306F40F0010005E024
:10256000400840003067306F20F00400306741F2CF
:102570008938A06860B1FFF7ADF88146306F8107F8
:1025800013D4FFF7A7F8A0EB09004045F6D344E7C2
:10259000FFF7A0F88146306F810706D5FFF79AF85C
:1025A000A0EB09004045F6D337E71DB1306C20F0B1
:1025B00080503064A069002864D0B16801F00C013B
:1025C00008293AD002282AD100203866FFF782F87D
:1025D00005463068810105D5FFF77CF8401B0228CD
:1025E000F7D91AE7E069216A626A0843A16A4908D3
:1025F00040EA8210491E40EA0140E16A40EA016077
:10260000706001203866FFF765F804463068810184
:1026100038D4FFF75FF8001B0228F7D9FDE6002049
:102620003866FFF757F80446306881012AD5FFF76E
:1026300051F8001B0228F7D9EFE6012820D0706876
:10264000E26900F48001914202BF00F03F01226A7A
:10265000914201BF47F6C0710140626AB1EB821F2F
:102660000ED1A26A00F4403101F580315208B1EB7D
:10267000024F02BF00F07060E16AB0EB016F01D061
:10268000012000E00020BDE8F28300BF00380240D6
:1026900000004742800E4742007000407047000033
:1026A000FEE7FEE7FEE7FEE7FEE77047704770478C
:1026B00000F014B801E0000000BF0548FDF796BD2A
:1026C000FBE7FAE70348FFF7C3BD0348FEF7FBBB90
:1026D0009001002058000020480100200248416875
:1026E00002788A18426070470000002030B400254C
:1026F00012E050F8042BD30744BF4A44521E091F6E
:10270000042942F8045BFAD213468C0744BF1580B3
:102710009B1CC90748BF1D7050F8041B0029E8D155
:1027200030BC704710B5074979441831064C7C44D9
:10273000163404E00A68081D114488470146A14286
:10274000F8D110BD2C0000004C0000004EF688515E
:10275000CEF20001086840F470000860BFF34F8FAC
:10276000BFF36F8F4FF00170E1EE100A7047000069
:102770007DFFFFFFC80100001000002000000000E6
:1027800083E6FFFF10000000A00000000000002012
:10279000000000000248016841F4700101607047C8
:1027A00088ED00E0000000000000000001020304CA
:1027B0000607080900F00DF8002801D0FFF7B2FF66
:1027C000AFF300800020AFF30080FEF7DBFF00F0E6
:1027D00002F80120704700F001B8000007463846B3
:1027E00000F002F8FBE7000080B5AFF30080024A7A
:1027F00011001820ABBEFBE7260002000548014689
:1028000003B4684680F30988AFF30080FFF79EFFAA
:10281000FFF7D0FFA5EDF5FE0148804701480047CE
:1028200095270008FD2700080100000000000000B7
:10283000100000000024F400000000000102030466
:10284000FFF7FEBFFFF7FEBFFFF7FEBFFFF7FEBFBC
:10285000FFF7FEBFFFF7FEBFFFF7FEBFFFF7FEBFAC
:10286000FFF7FEBFFFF7FEBFFFF7FEBFFFF7FEBF9C
:10287000FFF7FEBFFFF7FEBFFFF7FEBFFFF7FEBF8C
:10288000FFF7FEBFFFF7FEBFFFF7FEBFFFF7FEBF7C
:10289000FFF7FEBFFFF7FEBFFFF7FEBFFFF7FEBF6C
:1028A000FFF7FEBFFFF7FEBFFFF7FEBFFFF7FEBF5C
:1028B000FFF7FEBFFFF7FEBFFFF7FEBFFFF7FEBF4C
:1028C000FFF7FEBFFFF7FEBFFFF7FEBFFFF7FEBF3C
:1028D000FFF7FEBFFFF7FEBFFFF7FEBFFFF7FEBF2C
:1028E000FFF7FEBFFFF7FEBFFFF7FEBFFFF7FEBF1C
:1028F000FFF7FEBFFFF7FEBFFFF7FEBFFFF7FEBF0C
:10290000FFF7FEBFFFF7FEBFFFF7FEBFFFF7FEBFFB
:10291000FFF7FEBFFFF7FEBFFFF7FEBFFFF7FEBFEB
:10292000FFF7FEBFFFF7FEBFFFF7FEBFFFF7FEBFDB
:10293000FFF7FEBFFFF7FEBFFFF7FEBFFFF7FEBFCB
:10294000FFF7FEBFFFF7FEBFFFF7FEBFFFF7FEBFBB
:10295000FFF7FEBFFFF7FEBFFFF7FEBFFFF7FEBFAB
:0C296000FFF7FEBFFFF7FEBFFFF7FEBF52
:04000005080027FDCB
:00000001FF
