:020000040800F2
:10000000000600208D300008192F00081B2F000863
:100010001D2F00081F2F0008212F000800000000DE
:10002000000000000000000000000000232F000876
:10003000252F000800000000272F0008292F0008A6
:10004000A5300008A9300008AD300008B130000824
:10005000B5300008B9300008BD300008C1300008D4
:10006000C5300008C9300008CD300008D130000884
:10007000D5300008D9300008DD300008E130000834
:10008000E5300008E9300008ED300008F1300008E4
:10009000F5300008F9300008FD3000080131000893
:1000A0002D2F0008312F0008392F00083B2F0008A2
:1000B00005310008093100080D3100081131000830
:1000C00015310008193100081D31000821310008E0
:1000D0003D2F000825310008432F00082931000872
:1000E0002D31000831310008353100083931000860
:1000F0003D31000841310008453100084931000810
:100100004D310008513100085531000859310008BF
:100110005D3100086131000865310008693100086F
:100120006D3100087131000875310008793100081F
:100130007D310008813100088531000889310008CF
:100140008D3100089131000895310008993100087F
:100150009D310008A1310008A5310008A93100082F
:10016000AD310008B1310008B5310008B9310008DF
:10017000BD310008C1310008C53100080000000091
:10018000C9310008CD31000838B5040001D1012083
:1001900032BD00F01BF808B900F01CF800F01FF8A1
:1001A00000F027F8FFE7416100F001F832BD206858
:1001B000C16841F40051C16000206860202169706D
:1001C0002020A870002161630020704704F14005E1
:1001D0006878704700212970204600F07ABC2420FE
:1001E00068702068C16821F40051C160204600F0A9
:1001F000E7BA2068016921F49041016120684169F2
:1002000021F02A0170472DE9FC4106460D4696F87B
:100210004100202814461F4640D10DB1200001D1D5
:1002200001203CE000207064212186F8411000F09C
:10023000DFFCB4848046F48400F033F804BF3069F6
:1002400000281ABF2C460025002412E0002280213D
:10025000304600F0BFF9E0B93068002C12BF14F846
:10026000011B35F8021BC1F308014160F08C411EEF
:10027000F1844346F08C00970028E7D1002240210A
:10028000304600F0A7F920B9202086F84100002070
:1002900005E0202086F84100032000E00220BDE8B0
:1002A000F681B068B0F5805F704710B500F130039B
:1002B0009C7C202C0AD109B1140001D1012010BD71
:1002C00000241C60BDE8104000F0C1B9022010BD40
:1002D000216801F1140252E8001F206800F11403A4
:1002E00021F0400143E8001000287047F8B50446AB
:1002F00025682A6828460146C6684B6912F00F0F28
:1003000002F0200106F0200007D1002918BF0028C4
:100310005DD02046BDE8F240EAE1DF0702D416F4E2
:10032000907F54D0D50705D5F60503D5656C45F00B
:1003300001056564550705D5DE0703D5656C45F0F5
:1003400002056564950705D5DE0703D5656C45F0A4
:1003500004056564120706D508B9DA0703D5636C8E
:1003600043F008036364626C002A2FD000291EBF8B
:100370000028204600F0BCF920684069616C0A073B
:1003800001D440061DD5204600F08AF92068416955
:10039000480611D5FFF79CFFFCD1E06B60B10FF26E
:1003A00045310165E06B00F065FC00280ED0E06B84
:1003B000016DBDE8F44008472046BDE8F24000F07A
:1003C0007EBC204600F07BFC00206064F1BD206B09
:1003D000012804F1410340F09A80D00600D5F106CF
:1003E00040F19580002200922968009122685068AF
:1003F000009000992068A18D426950064BD5E26BB0
:100400001068406880B200283BD0884239DAE08525
:10041000D069B0F5807F2DD0216801F10C0050E843
:10042000001F226802F10C0521F4807145E80010DC
:100430000028F1D100F0AAF8490800F1140549009C
:1004400045E800100028F5D100F0A0F800F11405EF
:1004500021F0400145E800100028F5D12020587017
:100460000021216300F098F800F00CF9FAD1E06B5C
:1004700000F0C4FB02206063A18DE08D091A89B2EF
:1004800007E0884204BFD069B0F5807F7DD10222A9
:100490006263204637E0E28DE08D891A00281CBF98
:1004A00088B2002871D02246106800F10C0454E88C
:1004B000004F00F10C0624F4907446E80040002838
:1004C000F2D1106800F1140454E8004F640800F100
:1004D0001406640046E800400028F2D1202058703D
:1004E00000231363106800F10C0353E8003F00F190
:1004F0000C0523F0100345E800300028F2D102205B
:10050000506389B21046BDE8F44000F0D9BB100634
:100510002BD5310629D51878212836D1A068B0F519
:10052000805F04BF2069002809D1206A01882A461B
:10053000C1F308015160206A811C216205E0206A34
:10054000411C2162226800785060E08C401EE084EB
:1005500080B2D0B92068C16821F08001C1602068F4
:10056000C16841F04001C160F1BD50060DD5710672
:100570000BD52846C16821F04001C16020462021EA
:100580001970BDE8F24000F09CBBF1BD206800F19D
:10059000140151E8001F7047206800F10C0151E878
:1005A000001F00F10C037047026802F10C0151E8D2
:1005B000002F036803F10C047047016801F1140275
:1005C00052E8002F520801F11404520044E80021BF
:1005D000002970472DE9FC41089C05460E469046CF
:1005E0001F46286801683140B1420CBF012000203D
:1005F00040452AD114F1010FF3D000F0F9FAC01BE5
:10060000844200D314B90320BDE8F6812968C86884
:100610004207E6D5802E18BF402EE2D00846026879
:100620001307DED5002000902A68136800934968FC
:1006300000910098284600F033F805F140000821A9
:100640004160002202700120DEE70020DCE78162C9
:100650008285C28500214164222280F842200169FE
:1006600021B10168CA6842F48072CA6001684A69AF
:1006700042F001024A610068C16841F02001C16096
:100680000020704721F0100143E800100028704757
:10069000016801F10C0252E8002F01F10C047047CF
:1006A00010B5FFF7F5FF22F4907200F016F8F8D1BC
:1006B000FFF783FFFCD1016B012906D1FFF774FF1F
:1006C00022F0100200F009F8F8D1202180F8421041
:1006D0000022026310BD22F4807244E80021002948
:1006E00070470000806B0021C18500F0E8BA00006F
:1006F0001CB590F84210222952D18168826AB1F566
:10070000805F0AD1016969B903685968C1F30801BA
:100710001180826A911C81620FE0002904BF016987
:10072000002902D10368596803E00168496801F0B3
:100730007F011170816A4A1C8262C18D491EC18588
:1007400089B259BB0168CA6822F02002CA600168F8
:10075000CA6822F48072CA6001684A69520852006D
:100760004A61202180F8421000224263016B012976
:1007700012D1026300F016F802681168CB0607D5A3
:100780000024009412680092036859680091009A4E
:10079000818D00F095FA01E000F0DCFA002016BD32
:1007A000022016BD016801F10C0252E8002F01F190
:1007B0000C0422F0100244E800210029F2D1704715
:1007C00070B5044622681169E06821F44051014384
:1007D0001161D3682748A168034020690B43616910
:1007E0000343E0690B430343D3605169A06921F4DB
:1007F00040710143516120498A421CBF1F48824217
:1008000002D100F005FE01E000F0FAFD6268256803
:10081000E4691921B4F5004FA1FB00016FF06306F4
:1008200012D1D30F520000F00BFE00F029F8F600B1
:1008300032366420B6FBF0F0420002F4F87202EBAC
:10084000011200F0070010E0930F920000F0F8FD95
:1008500000F016F8360132366420B6FBF0F000F0F6
:10086000F00202EB011200F00F008018A86070BDCA
:1008700000000000F369FFFF001001400014014078
:100880006421B0FBF1F106FB0106704781B0002046
:1008900000900022DFF82403416841F48041416068
:1008A000416801F48041009100990092036843F08F
:1008B00080530360006800F080500090009801B001
:1008C000704710B586B000F0FEF82168DFF8F0023E
:1008D00081421DD10022DFF8EC020092416941F40F
:1008E00080714161416901F4807100F014F92E2199
:1008F000036843F001030360032200F0ADF8DFF862
:10090000C802019102920021039101A900F038FE72
:1009100006B010BD10B586B000F0D5F82168DFF83C
:10092000B002814226D10022DFF8984200921222C2
:10093000206840F002002060216801F0020100916F
:100940004FF440710098A348019102920021039155
:10095000032204210591049201A900F011FE002058
:100960000090216941F400112161206900F4001018
:100970000090009806B010BD10B586B000F0A3F846
:1009800021689548814235D100228E48914C0092D1
:10099000016941F480410161016901F4804100F085
:1009A000BAF84FF40441036843F0020303600222E3
:1009B000006800F0020000900098019102920392FA
:1009C000052103220591049200F079F80221029199
:1009D000012203924FF480400321019004910522EB
:1009E00000F06CF800220021242000F0F7FE242003
:1009F00000F012FF06B010BD00687849884200D0B0
:100A0000704780B5002271480092016841F00101F1
:100A10000160002100F020F8182000F0DFFE18200F
:100A200000F0FAFE00220021192000F0D7FE192064
:100A300000F0F2FE002200211A2000F0CFFE1A2062
:100A400000F0EAFE002200211B2000F0C7FEBDE8F6
:100A500002401B2000F0E0BE006800F001000090A2
:100A60000098704710B586B000F02DF821685B48FB
:100A7000814221D100225348594C00920222016840
:100A800041F0100101604FF40071006800F01000A7
:100A9000009000980292039201910122049200F0CA
:100AA0000DF80022039204924FF40060022101909D
:100AB0000291012200F002F806B010BD059201A9D2
:100AC000204600F05DBD04461422002101A800F07C
:100AD000CDBE10B586B0FFF7F6FF216841488142D0
:100AE00017D100F05AF841F400310161016901F4B5
:100AF000003100F010F8602100F044F83A4800F0AE
:100B000051F800220021262000F068FE262000F087
:100B100083FE06B010BD009100990092704710B599
:100B200086B0FFF7D0FF21683048814228D100F01D
:100B300034F841F480210161016901F48021FFF75B
:100B4000EAFF036843F002030360016801F0020159
:100B5000FFF7E1FF4FF4006100F014F81D4800F0CA
:100B600021F802210291002203924FF4A060032198
:100B7000019004910722059201A91B4800F000FD95
:100B800006B010BD036843F008030360022200684A
:100B900000F0080000900098704700220948009279
:100BA00001697047019102920021039103220721FC
:100BB0000591049201A900F0E3BC00004038024016
:100BC000002001403038024000000240443802401A
:100BD0000054004000040240003800400000014082
:100BE0000010024000440040000C02400048004059
:100BF00001484068704700BF88010020F8B50446EE
:100C000004F134056E6AFFF7F3FF0746687802289F
:100C100005D080212962002028700120F2BD2068C3
:100C2000016821F01601016000F036F8E86800283C
:100C300004BF6869002801D000F03AF800F032F8EB
:100C400020680168CA070CD5FFF7D2FFC01B062831
:100C5000F6D3202028620321697000202870032029
:100C6000F2BDA86A3F218140B16000200121697076
:100C70002870F2BD90F83510022903D08022426519
:100C800001207047052180F835100068026852087D
:100C900052000260002070472068416921F0800105
:100CA0004161704720680168490849000160704748
:100CB0002068016821F0080101607047000070475A
:100CC000704770477FB50D460FF220610A680446F1
:100CD00002A80021026001A80160FFF789FF00F16E
:100CE000C8064FF48041DFF8C00500F034FD01284C
:100CF00006D1FFF77DFF8642F3D2012004B070BD1C
:100D0000DFF8A865002200F020F8642000F0B8FDAC
:100D10004FF0FF300090042301AA02A9204600F002
:100D200021FE012200F011F89DF805109DF8040045
:100D3000090441EA00619DF8060041EA00219DF89E
:100D40000700014329600020D8E74FF400413046F6
:100D500000F007BD0068DFF85815884200D07047E2
:100D60001CB5DFF85045217B607B60B90F2947D166
:100D7000012060730022A2734FF40051DFF82C05AC
:100D800000F0F3FC3CE001283CD1A07B092804DC06
:100D90002154401CA07300F036F8A07B0A2831D102
:100DA00021786078A27841EA0021E07841EA0241A6
:100DB00041EA0061E16520796179A27940EA012088
:100DC000E17940EA024040EA01602066207A617AD7
:100DD000E0732174F0208DF800006946606E487061
:100DE000020A030C000E08718A700120CB70487152
:100DF0006423062204F11400FFF705FA0020607353
:100E000000F001F813BD012204F10C0104F11400FB
:100E1000FFF74BBA000000002DE9F04F95B000F04D
:100E2000CDFF00F0F2F91421684600F0E1FF002048
:100E300005904FF4805BDFF88004DFF870440168B0
:100E4000DFF8646441F0100101604FF4005502685E
:100E500002F010020592002205990592036843F002
:100E600004030360016801F0040100F0C4F943F0D9
:100E700080030360016801F0800100F0BCF943F0D9
:100E800001030360016801F0010100F0B4F943F0CF
:100E900002030360016801F00201059105990592C2
:100EA0004AF20401036843F008030360006800F09D
:100EB000080005900598204600F053FC00224FF4EE
:100EC0004051304600F04DFC42F2040100910122F5
:100ED00000210291039101926946204600F050FBE7
:100EE00010204FF48811009001910022029269466F
:100EF000DFF8C80300F044FB0122019202924FF494
:100F000000410091002203926946204600F038FB20
:100F100001210191002202920392CDF800B06946AE
:100F2000304600F02DFB01210191029103910095C3
:100F30006946304600F024FB684600210022002369
:100F4000002680E84E004FF48030DD4EDD497060B1
:100F500006F13007DC48B06231600120F061706159
:100F6000B2603261327686F82020F262F2603A7026
:100F7000304600F041FF08B100F0B6F901200090C2
:100F80000190002202926946304600F0EAFF08B163
:100F900000F0AAF9CD48CE497867B9670020F86714
:100FA00006F1B0084FF480400021C8F80400C8F8EA
:100FB0000010C8F80810C8F80C10C8F81010C8F8CD
:100FC000141006F1A40001F071F808B100F08CF9DA
:100FD00011A80021002200238C4680E80E10CDE9E4
:100FE000001202A81C2100F003FF202109A800F034
:100FF000FFFE002006F59E790021C9F804004FF697
:10100000FF70C9F80C00C9F80810C9F81010C9F829
:101010001410C9F818104846DFF8B8A2C9F800A0A3
:1010200001F0EEF808B100F05FF9CDF844B011A975
:10103000484601F094FA08B100F056F9484601F02C
:1010400000F908B100F050F90021009101914846E3
:10105000694601F03DFC08B100F046F9602000212E
:101060000290039100220591079104920692089242
:1010700002A9484601F011FA08B100F035F904223E
:1010800002A9484601F009FA08B100F02DF9002143
:1010900009910A910B910C910D9110910E9509A94E
:1010A000484601F05BFC08B100F01EF94846FFF726
:1010B000D9FC804D7E4868610C210020E8612862DF
:1010C0006862E86228634FF4E13BA962C5F818B092
:1010D00005F11400FFF758F808B100F005F97E4853
:1010E000C8F8480000210C20C8F85C00C8F850106F
:1010F000C8F85410C8F85810C8F86010C8F8641040
:10110000C8F86810C8F84CB006F1F80001F050FCBF
:1011100008B100F0E9F87148F8614FF482710020DD
:101120007862B862F862386339624FF400707863AD
:101130001821B9630020F863386478640A21B9641F
:1011400006F14C0000F0B0FB08B100F0CDF8012230
:101150004FF40051204600F004FB0021484601F006
:101160007DF8012205F10C0105F11400FFF79DF84F
:1011700000220421204600F0F4FA002200F040F89A
:10118000642000F07DFB00BF59A10A6802A800217D
:10119000026001A80423016001AA4FF0FF31009111
:1011A00006F14C0002A900F0DDFB012200F028F856
:1011B000642000F065FB0120E97BC2B29142FAD3C2
:1011C000EB6DCAF82C30296ECAF83410387606F563
:1011D000C27106F14C00FFF775FD010004D1D9F88A
:1011E0004810C1F395116966B876787E00F048FB27
:1011F000387E401CE0E70591059905920368704729
:101200004FF40041204600F0ACBA80B592B03021D6
:1012100006A800F0EDFD142101A800F0E9FD002072
:1012200000902F48016841F0805101600021006862
:1012300000F08050009000982A4800910221026836
:1012400042F4804202600122006800F48040009075
:1012500000980691099210210A91022200210C9215
:101260000D910822A8210E920F91022204211092C2
:10127000119106A801F018FC08B100F035F8022120
:101280000291002203920F204FF4A051019004918B
:101290004FF480520592052101A800F02BF808B107
:1012A00000F022F813B000BD00040240001002401C
:1012B0000044004098010020303802400000024005
:1012C00000000020002001400100000F00540040F9
:1012D000A0860100000001400048004000380040A6
:1012E000403802400070004072B6FEE7FFFFFFFF8B
:1012F000FFFFFFFF2DE9F04104000F4654D0494E97
:10130000306800F00700B84202D200F073F84BD109
:101310002068454D810712D5400703D5A96841F4DF
:10132000E051A9602078010703D5A86840F4604027
:10133000A860A968A06821F0F0010143A9602178A4
:10134000C80729D56068012802D129688A0305E009
:10135000022818BF032803D129688A0103D423E097
:1013600029688A0720D5A968890840EA8100A86011
:10137000FFF73EFC8046A868616800F00C00B0EB07
:10138000810F09D0FFF734FCA0EB080041F289314E
:101390008842F0D303202BE0306800F0070087423A
:1013A00004D200F027F801D0012021E02078410785
:1013B00005D5AA68E06822F4E0520243AA602178C9
:1013C000080706D5A968206921F4604141EAC001F7
:1013D000A96001F0F9FCAA681449154BC2F3031285
:1013E000895CC84018601348006801F01DFD0020AA
:1013F000BDE8F0813770316801F00701B9427047EC
:101400000B480D4A006813680C49C3F3822206E0BA
:101410000748094A006813680849C3F34232895CE7
:10142000C8407047003C02400038024018300008B5
:101430009401002090010020083802409C300008F0
:10144000D3BBD9B1B2F5803F5BD2022A1ED98C46FC
:10145000B1FBF2F102FB11C31B0443EA1043B3FBDF
:10146000F2FC02FB1C3380B240EA0343B3FBF2F010
:1014700002FB103240EA0C4000237047022A05D9D3
:101480008446B0FBF2F002FB10C270474AB105D1AE
:1014900000F0010249085FEA300070470022002393
:1014A000704701F0E1BC0B000200002100207047F2
:1014B000F7D3002200237047904271EB030CF2D364
:1014C00070B5B1FA81F4B3FA83F52C1BA340C4F1D3
:1014D000200532FA05F63343A2405FF00046E640AD
:1014E00002E05B085FEA3202841A71EB030524BF55
:1014F000204629467641F4D302000B00300000213B
:1015000070BD70B5B1FA81F4B2FA82F5C4F120046D
:101510006419B4F12006DAD3B2405FF00044F4401D
:10152000002502E052085FEA3303C61A71EB020E8F
:1015300024BF3046714664416D41F3D302000B0075
:101540002000290070BD30B50168846842184168E8
:1015500002EB5103C90703D54C4401E0491C08D1F3
:101560009A4218BF12F9011B01D10C3030BD12F89C
:10157000015B002904F8015BF0D4491EF7D5EFE7C1
:101580002DE9F84F0D4600267C497D4A0F2304467D
:1015900001202F68B04000EA0708804540F0D58060
:1015A0004FEA460C032707FA0CF76FEA070E6F683D
:1015B00007F00309B9F1010F1CBF07F00307022F61
:1015C00012D1A768D5F80C900EEA070709FA0CF9B2
:1015D00049EA0707A760676827EA00006F68C7F352
:1015E0000017B74038436060B0002F7907F0030759
:1015F000032F21D0E768D5F808900EEA070709FA0B
:101600000CF949EA0707E7602F7907F00307022F73
:1016100012D1F70804EB870700F01C09D7F820A0C7
:1016200003FA09FB2AEA0B0AD5F810B00BFA09F9FC
:1016300049EA0A09C7F8209027680EEA070E2F79B1
:1016400007F0030707FA0CF747EA0E0CC4F800C0CE
:101650006F6817F4403F78D04FF0000ECDF800E0EF
:101660004FEA960C176847F48047176000F00C00AB
:10167000D2F800E0434F0EF4804ECDF800E0DDF8E4
:1016800000E057F82C7003FA00FE27EA0E0E3E4FDA
:10169000BC4208BF002722D03C4FBC4208BF0127F4
:1016A0001DD03B4FBC4208BF022718D0394FBC4267
:1016B00008BF032713D0384FBC4208BF04270ED001
:1016C000364FBC4208BF052709D0354FBC4208BF82
:1016D000062704D0334FBC420CBF0727082707FA60
:1016E00000F040EA0E00DFF89CE04EF82C006FEAB4
:1016F0000800D1F808C06F6800EA0C0CFF0248BF70
:1017000048EA0C0CC1F808C0D1F80CC06F6800EAB8
:101710000C0CBF0248BF48EA0C0CC1F80CC0D1F851
:1017200004C06F6800EA0C0CBF0348BF48EA0C0C09
:10173000C1F804C0D1F800C000EA0C0C6868C0030E
:1017400048BF48EA0C0CC1F800C0761C0F2E7FF68B
:101750001FAFBDE8F18F0069084018BF0120C0B27B
:10176000704702B9090481617047426901EA0203C6
:10177000914341EA0341816170470000003C014010
:101780004438024008380140000002400004024092
:1017900000080240000C0240001002400014024009
:1017A00000180240001C02400901020002D428482F
:1017B00081547047274B02F00F021A4402F8041CB0
:1017C0007047254B19684FF6FF020002114000F4E4
:1017D000E0600843214908431860704770B51E4B0C
:1017E0001C68C4F302230124C3F10705052D2EBF95
:1017F0000F2504FA05F56D1E1E1D072E34BF0023AC
:10180000DB1E2940994004FA03F3BDE870405B1EDB
:101810001A401143C8E70000010007D4012200F07C
:101820001F010F4B8A40400943F820207047401E9B
:10183000B0F1807F01D3012070470A490A4A48600D
:101840000023F02010708B60072008600020704794
:1018500000E400E018ED00E00CED00E00000FA0507
:1018600000E100E010E000E023ED00E010B50446E8
:1018700010460A460146204601F0F8FA204610BDFF
:1018800038B50446FFF7B4F914F1010F054602D04C
:10189000044801786418FFF7ABF9401BA042FAD363
:1018A00031BD00BF8801002038B5040001D10120FE
:1018B00032BD606A28B900F04BF905D00021E16122
:1018C00002E00020206160610020A06204F1500568
:1018D000687820B9002129702046FFF74DF80220D2
:1018E000687000F0CFF96068A168E26800F4827067
:1018F00001F404410843217C02F400621043227D7C
:1019000001F002010843A16902F001021043227FA5
:1019100001F40071084394F8201002F038021043DB
:10192000A26A01F080010843216802F400521043CA
:101930000860A06994F824102268000C00F00400EC
:1019400001F01001084350602068C16921F4006172
:10195000C161002068600121697032BDA0EB080000
:10196000A04270472DE9F84307460C469046994639
:10197000FFF73EF907F1500601257378012B07D0D8
:101980007968B1F5827F02BFB9680029042B0AD1BA
:10199000002C1CBFB8F1000FB9F1000F00F0BE80A1
:1019A0003178012901D10220CAE035707378042B07
:1019B0001CBF0521717000237360C7F83880A7F839
:1019C0003E90A7F83C903C63A7F83690A7F8349077
:1019D0003B647B6439680C68630603D40C6844F08C
:1019E00040040C60F968089CB1F5006F796846D135
:1019F000002918BFB9F1010F09D1396B3B680A887A
:101A0000DA60396B8A1C3A63F98E4A1EFA86804680
:101A1000F88E002804BFF88F002875D039688868D0
:101A200082070ED5F88E002818BF002D09D0386B1C
:101A30000288CA600025386B811C3963F88E411E0C
:101A4000F98639688868C2070BD5F88F48B1C8682D
:101A5000B96B08800125B86B821CBA63F88F411EF0
:101A6000F987FFF7C5F8FFF779FFD1D314F1010F1C
:101A7000CED00120707000213170032060E0002979
:101A800018BFB9F1010F09D1396B3B680A781A7395
:101A9000396B4A1C3A63F98E4A1EFA868046F88EE4
:101AA000002804BFF88F00282ED039688868820784
:101AB0000ED5F88E002818BF002D09D0386B02789B
:101AC0000A730025386B411C3963F88E411EF98674
:101AD00039688868C2070BD5F88F48B1C868B96BF8
:101AE00008700125B86B421CBA63F88F411EF98754
:101AF000FFF77EF8FFF732FF03D314F1010FCED0CA
:101B0000B7E7002CCBD1B4E742462146384600F077
:101B100019F928B1202070600021317001200FE0F8
:101B2000B86820B900210091396800F00BF8012154
:101B30007170002030707168080018BF0120C0B2B9
:101B4000BDE8F283CA6800928968009100987047E6
:101B50006068B0F5827F70472868016821F0400115
:101B6000016070477CB5044622685168936803F0B1
:101B70004100012806D1480604D5216C2046BDE865
:101B80007C400847980706D50D0604D5616C2046B1
:101B9000BDE87C40084713F4B07F64D0880662D566
:101BA0005D060ED594F8510003284FD0606D40F0CB
:101BB0000400606500250095D6680096956800953C
:101BC00000989D060ED5606D40F00100606500250F
:101BD00000959268009220680568024625F040054D
:101BE00015600098DA0509D5606D40F00800606561
:101BF00000220092206882680092009B606D90B382
:101C00002068426822F0E0024260012011F0030FD8
:101C100084F8510022D020680FF24D0541688908F0
:101C200089004160E06C28B10565E06CFFF722F89F
:101C300000F022F8A06CB0B10565A06CFFF71AF8AF
:101C400088B1606D40F04000606573BD0020009079
:101C5000D168009192680092009873BD2046BDE85B
:101C6000764001F036B973BD806B0021C187002238
:101C7000C28601F02EB9000018B1606D40F040003E
:101C8000606570472068016821F04001016070477D
:101C90002DE9F843089C05460E4690461F46FEF780
:101CA000A7FF381A2418FEF7A3FF814641480168B0
:101CB0004901090D6143009105E0009800B9002435
:101CC0000098401E0090286881683140B1420CBFE6
:101CD00001200020404532D017F1010FF3D0FEF76C
:101CE00087FFA0EB0900A04201D2002CE5D12868B3
:101CF000416821F0E00141606868B0F5827F08D159
:101D0000A868B0F5004F18BFB0F5806F01D1FFF79C
:101D100023FFA86AB0F5005F09D12868016821F4A3
:101D2000005101602868026842F40052026005F127
:101D300050000121417000220270032000E00020C9
:101D4000BDE8F2837CB50D461646044600962B4648
:101D500001220221FFF79CFFB8B91648164B016813
:101D60001822B1FBF2F2B2FBF3F34FF47A70434363
:101D700000936168B1F5827F0AD100962B4600225C
:101D800080212046FFF784FF58B100F00CF876BDA3
:101D9000009830B10098401E0090216888680106C4
:101DA000F6D4002076BD606D40F020006065032011
:101DB000704700009401002040420F0080B50B489E
:101DC000016841F400710160026842F480620260BF
:101DD000016841F4807101600320FFF7F2FC0F20DD
:101DE00001F022F8FEF752FD002002BD003C024047
:101DF000002201F06FB8000070B5044600250CB950
:101E0000012070BD04F13006306928B92046FEF784
:101E100058FD0020706130733069C10600F1928076
:101E20003069DFF8741220F4885040F0020030610D
:101E3000086820F4403008600A68606802430A605D
:101E40002068416821F480714160206841682269FE
:101E500041EA022141602068416821F040714160FF
:101E600021684A68A06802434A602068816821F4BA
:101E70000061816021688A68E06802438A602068A6
:101E8000A16ADFF818229142816821F070618160B7
:101E90000CD021688A68A06A02438A6000F05BF86F
:101EA00021688A68E06A02438A6001E000F053F822
:101EB0002068816821F0020100F049F8227E41EAA1
:101EC0004201816094F820002168002848680FD002
:101ED00040F4006048602068416821F4604141603E
:101EE00020684168626A521E41EA4231416002E064
:101EF00020F4006048602068C16A21F47001C1626A
:101F00002068C16AE269521E41EA0251C16220683A
:101F1000816821F4007100F01AF8327841EA422118
:101F200000F015F821F4806100F011F8626941EACF
:101F300082218160002070610120316960F301011C
:101F4000316100E0012500203073284670BD8160BA
:101F50002068816870472068816821F04051816065
:101F6000704778B502460020009092F83C30012B73
:101F700001D1022072BD012082F83C0007240B68C9
:101F800010680A2B12D30A3BC56803EB43039C403D
:101F900025EA0404C460C3680D688C68A5F10A06CC
:101FA00006EB4606B4402343C3600FE0056903EB2C
:101FB000430304FA03F325EA0303036103690D688D
:101FC0008C6805EB4505AC40234303611F244B6837
:101FD000072B0CD25B1E456B00F050F84463436B3B
:101FE0004D680C886E1E00F044F843631BE00D2B17
:101FF0000CD2DB1F056B00F041F80463036B4D68E6
:102000000C88EE1F00F035F803630CE00D3BC56A49
:1020100000F034F8C462C36A4D680C88A5F10D065F
:1020200000F027F8C3621E4B98421DD10C681A4875
:10203000122C03D1036843F4800303600B68102B58
:1020400018BF112B10D1036843F400030360086824
:10205000102809D11449134C0B68B3FBF4F40A207F
:102060004443009400F010F8002182F83C10002056
:1020700072BD06EB8606B4402343704703EB83032F
:102080009C4025EA0404704702E00098401E00903E
:1020900000980028F9D17047042301400100000F87
:1020A0000020014040420F0094010020F8B50400D8
:1020B00025D004F13C05697821B90020287020461C
:1020C000FEF728FC2421697020680268520852003B
:1020D00002602068016841F40041016020680268E4
:1020E00022F400420260FFF78BF901466068DFF8D6
:1020F000F820904205D2DFF8F430994205D2012051
:10210000F2BDDFF8EC008142F9D32068DFF8E4305B
:102110004668B1FBF3F3B60943EA861646602668C3
:10212000376A6068904206D34FF4967043434FF489
:102130007A70B3FBF0F35B1CBF0943EA8713336289
:10214000491E2368DE696768974206D27F0000F067
:1021500044F8042913D2042111E0A06820B907EB48
:10216000470700F03AF805E01920474300F035F83A
:1021700041F4804108050CBF012141F40041DFF822
:10218000780006400E43DE6122681368E169206A28
:1021900023F0C0030B43034313602268DFF85C00A5
:1021A000936821690340E0680B430343936022680E
:1021B000D368A16960691B0A41EA03230343D36022
:1021C0002068016841F00101016000206860202161
:1021D000697020630021A970F2BDB1FBF7F1491CC1
:1021E000C1F30B0170470000A186010080841E002E
:1021F00000093D0040420F000030FFFF007CFFFF60
:1022000038B5040001D1012032BD00F0A5F818B99D
:1022100000F003FAFEF7F0FBFFE702206870211DD3
:10222000206800F0FEF90120A8720121A970E87071
:1022300029716871A971E87129726872697000204A
:1022400032BD38B5040001D1012032BD00F084F860
:1022500018B900F0E2F900F056FEDEE710B50446CA
:1022600004F13E0009B9027807E0042908BF42786A
:1022700003D008290CBF8278C278012A01D001203E
:1022800010BD11B9022202700AE0042902D1022213
:10229000427005E0082907BF022282700223C37042
:1022A0002068012200F005FB00F02BF818BF8842DF
:1022B00000F02EF818BFB0F1804F12D000F01DF8DA
:1022C0001CBFDFF8803098420BD000F012F818BF26
:1022D000884206D000F029F81CBFDFF87820904231
:1022E00003D100F01DF802D0206800F021F8002092
:1022F00010BDDFF8542090427047DFF84420904230
:1023000070472068DFF83420DFF8401090427047B3
:1023100003D1436C43F40043436420689042704708
:10232000806800F007000628704709498842704716
:102330000168024641F00101116070470000014050
:102340000004004000080040000C00400004014070
:10235000004001400018004004F13C0568787047D7
:1023600070B504462068C5680669B10714D5AA0788
:1023700012D56FF00201016101222277806910F00D
:10238000030F204602D000F0BFFD03E000F0BDFDCA
:1023900000F07BF800202077700715D5690713D56A
:1023A00020686FF00402026102212177806910F435
:1023B000407F204602D000F0A7FD03E000F0A5FD1D
:1023C00000F063F800202077300715D5290713D5D2
:1023D00020686FF00802026104212177C06910F0C3
:1023E000030F204602D000F08FFD03E000F08DFDCA
:1023F00000F04BF800202077F00615D5E90613D53C
:1024000020686FF01002026108212177C06910F482
:10241000407F204602D000F077FD03E000F075FD1C
:1024200000F033F80020207706F0010105F00100EC
:10243000014206D020686FF001010161204600F0E2
:1024400065FD300608D5290606D522686FF08000A4
:102450001061204600F05BFD700608D5690606D5C0
:1024600022686FF040001061204600F051FDB00678
:102470000AD5A90608D522686FF020001061204611
:10248000BDE8704000F045BD70BD204600F042BD83
:10249000002084F83C002846704770B500F058F8DA
:1024A00001D1022070BD012084F83C0032B1042A21
:1024B00015D0082A25D00C2A34D045E0206800F039
:1024C000FFF82168886940F008008861886920F079
:1024D000040088618A69306902438A6135E02068B6
:1024E00000F01AF92068816941F400618161816915
:1024F00021F4806181618169326941EA022181614F
:1025000023E0206800F038F92168C86940F008002D
:10251000C861C86920F00400C861CA693069024313
:10252000CA6112E0206800F056F92068C16941F4E0
:102530000061C161C16921F48061C161C169326911
:1025400041EA0221C16100E00125FFF7A1FF70BD52
:102550000446002594F83C0001280E46704770B5EB
:10256000064606F13C0500242878012801D1022006
:1025700070BD0120287002226A70DFF8A002326864
:102580009368034093600868020018BF102830D099
:10259000202818BF30282CD0402826D0502819D009
:1025A00060281BD0702806D0B0F5805F27D0B0F52A
:1025B000005F07D022E000F02BF83068816841F01E
:1025C000770105E000F024F83068816841F480412B
:1025D000816014E000F018F850210BE0CA684968E7
:1025E000306800F042F9602104E000F00DF840216D
:1025F00000E00146306800F04AF900E001240120C3
:10260000687000F00AF870BDCA68496830681DE15A
:10261000CB684A688968306841E10021297020460A
:102620007047F0B505687E4C7E4B7F4E7F4FDFF8DC
:1026300000C2A04218BFB0F1804F07D0604518BF5C
:10264000B84203D0B04218BF98420DD14A6825F075
:1026500070051543A04218BFB0F1804F17D06045F8
:102660001CBFB842B04212D098421CBF714A90427F
:102670000DD0714EB0421CBF704A904207D0704ED0
:10268000B0421FBF6F4A90426F4EB04203D1CA683A
:1026900025F4407515434A698E68C66225F08005A9
:1026A00015430A688262A04212BF98420969016319
:1026B000026842F004020260012141610560F0BD40
:1026C000F0B5066A026A564F52085200026226F0BE
:1026D0000206446885690B688A6825F073051D4306
:1026E0001643504BB84218BF984207D1CA6826F02B
:1026F00008061643B84226F0040601D0984205D1D8
:102700004B698A6924F440741C4314434460856116
:10271000496841630662F0BDF0B5056A026A404E41
:1027200022F01002026225F02005436884690A68DD
:1027300024F4E64444EA02248A6845EA0215394A48
:10274000B04218BF904208D1CF6825F0800545EA15
:102750000715B04225F0400501D0904206D14E69E0
:102760008A6923F44063164343EA86034360846125
:10277000496881630562F0BDF0B5056A026A22F41A
:102780008072026225F400754368C4698E680A6825
:1027900024F0730445EA06251443214E214AB04231
:1027A00018BF904208D1CF6825F4006545EA072597
:1027B000B04225F4806501D0904206D14E698A6905
:1027C00023F44053164343EA06134360C461496847
:1027D000C1630562F0BD70B5046A026A104E22F44E
:1027E0008052026224F400544268C3690D6823F4E5
:1027F000E64343EA05238D6844EA0534B0421CBF32
:10280000084DA84204D14D6922F4804242EA851263
:102810004260C36149680164046270BD8800FFFFC3
:102820000000014000040140000C0040000800408E
:1028300000040040004001400044014000480140C5
:1028400000180040001C00400020004010B5036A42
:10285000046A64086400046223F00A03846924F0B3
:10286000F00444EA021484612EE010B5036A046A9D
:1028700024F01004046223F0A003846924F470445B
:1028800044EA0234846143EA0113036210BD8268A2
:1028900022F07002114341F007018160704710B5CA
:1028A000846824F47F442143114341EA0321816079
:1028B00010BD10B501F01F01036A01248C40A34331
:1028C000036202FA01F1036A1943016210BD0000BC
:1028D00070B500F13C031A78012A01D1022070BDC5
:1028E00001221A7002245C7005686E68AC680A6880
:1028F00026F0700616436E6002681148824218BFC7
:10290000B2F1804F11D0114882421CBF104DAA4233
:102910000BD00D4882421CBF0E4DAA4205D009487B
:1029200082421CBF0C4DAA4204D1486824F08004A6
:1029300004439460012159700020187070BD00009C
:102940000000014000400140000C00400004004035
:1029500000080040000401400018004010B590F845
:102960003C20012A01D1022010BD012280F83C2028
:10297000CC688A684B6824F44074144324F480645F
:102980001C430A680B6924F40064144324F4805443
:102990001C434A69C96924F400541443026824F4AE
:1029A00080440C435464002380F83C30002010BD68
:1029B000F8B5040001D10120F2BD04F13C0778789C
:1029C00020B9002139702046FEF7A9F8022078705E
:1029D00019262068C16821F00C01C1606FF0630501
:1029E00022681369A169E06923F47C530B43216ACF
:1029F0000343E0680B43034343F40063136122681D
:102A00002649D368A0680B402169034360690B43E2
:102A1000034343F40043D3602068416921F44071CB
:102A2000416120681E4988421CBF1E4A904202D064
:102A3000FEF7E6FC01E0FEF7EBFC0246A6FB020116
:102A40006268D30F5200FEF7FBFC6421B0FBF1F18A
:102A500005FB0105ED0032356420B5FBF0F04200C6
:102A600002F4F87202EB0112216800F007008018EE
:102A700088602068016921F4804101612068416912
:102A800021F02A0141612068C16841F40051C16010
:102A90000020786001217970F2BD0000F369FFFF2A
:102AA00000100140001401402DE9F843040016D045
:102AB0002078DFF80463C10713D5B06800F00C007C
:102AC000042807D0B06800F00C0008283DD17068D9
:102AD00041023AD53068810303D56068002800F0D0
:102AE00065812078B54F810719D5B06810F00C0FBB
:102AF00007D0B06800F00C0008285BD17068410274
:102B000058D43068810703D5E068012840F04E8131
:102B10003168206921F0F80141EAC0013160217873
:102B2000080779D56069A649002868D001220A60A3
:102B3000FEF75EF80546706F81076DD4FEF758F812
:102B4000401B0228F7D9032033E16068B0F5803FCD
:102B500004D1306840F48030306011E0B0F5A02F2F
:102B6000306806D140F480203060316841F4803113
:102B700005E020F480303060316821F4802131603C
:102B8000606858B1FEF734F8054630688103A8D470
:102B9000FEF72EF8401B6528F7D3D4E7FEF728F898
:102BA0000546306881039CD5FEF722F8401B652856
:102BB000F7D3C8E7E068A8B101213960FEF718F83B
:102BC00005463068810705D4FEF712F8401B02283D
:102BD000F7D9B8E73068216920F0F80040EAC10071
:102BE00030609CE73860FEF703F8054631688807D7
:102BF00095D5FDF7FDFF401B0228F7D9A3E7086034
:102C0000FDF7F6FF0546706F810705D5FDF7F0FF6C
:102C1000401B0228F7D996E72078410760D5306C31
:102C20000025C1000BD4002000900125316C41F03B
:102C300080513164306C00F0805000900098DFF8D3
:102C40008481D8F80000C10513D4D8F8000040F4FE
:102C50008070C8F80000FDF7CBFF8146D8F800006F
:102C6000C10506D4FDF7C4FFA0EB09000228F5D981
:102C700069E7A068012805D00528306F06D140F02B
:102C800004003067306F40F0010005E0400840006C
:102C90003067306F20F00400306741F28938A06857
:102CA00060B1FDF7A5FF8146306F810713D4FDF7B2
:102CB0009FFFA0EB09004045F6D344E7FDF798FFDE
:102CC0008146306F810706D5FDF792FFA0EB090022
:102CD0004045F6D337E71DB1306C20F080503064AA
:102CE000A069002864D0B16801F00C0108293AD02D
:102CF00002282AD100203866FDF77AFF05463068A1
:102D0000810105D5FDF774FF401B0228F7D91AE7AA
:102D1000E069216A626A0843A16A490840EA8210B0
:102D2000491E40EA0140E16A40EA0160706001200A
:102D30003866FDF75DFF04463068810138D4FDF741
:102D400057FF001B0228F7D9FDE600203866FDF783
:102D50004FFF0446306881012AD5FDF749FF001B6B
:102D60000228F7D9EFE6012820D07068E26900F464
:102D70008001914202BF00F03F01226A914201BFEF
:102D800047F6C0710140626AB1EB821F0ED1A26AA0
:102D900000F4403101F580315208B1EB024F02BF1F
:102DA00000F07060E16AB0EB016F01D0012000E03B
:102DB0000020BDE8F28300BF003802400000474217
:102DC000800E47420070004030B5144C606800F03F
:102DD0000C00042802D0082802D01DE0104830BDA5
:102DE000226820680023410202F03F0204D52568D2
:102DF0000B49C5F3881003E020680A49C0F3881026
:102E0000A1FB0001FEF71CFB2168C1F30141491C35
:102E10004900B0FBF1F030BD024830BD043802403B
:102E2000002D31010024F40038B50D4D0D4B2A78EA
:102E300004464FF47A711868B1FBF2F2B0FBF2F07D
:102E4000FEF7F5FC50B9102C08D2002221464FF0B5
:102E5000FF30FEF7C3FCAC60002032BD012032BD64
:102E600088010020940100207047000062F30F22C7
:102E700062F31F42401810F0030308D0C91A1FD391
:102E8000DB0748BF00F8012D28BF20F8022D1300F2
:102E900030B414461546103928BF20E93C00FAD852
:102EA000490728BF20E90C0048BF40F8042D8900DD
:102EB00028BF20F8022D48BF00F8012D30BC704714
:102EC000C91818BF00F8012DCB0728BF00F8012D45
:102ED0007047704700B500BF1300964694461039FE
:102EE00028BFA0E80C50FAD85FEA417C28BF0CC08C
:102EF00048BF40F8042BC90728BF20F8022B48BF61
:102F000000F8012B00BD704770477047704770474D
:102F10007047704770470000FEE7FEE7FEE7FEE7F8
:102F2000FEE770477047704700F014B801E00000FA
:102F300000BF0548FFF714BAFBE7FAE70348FEF7BE
:102F400011BE0348FDF7D2B93C0100204C0000201F
:102F5000AC0100200248416802788A18426070473C
:102F60008801002030B4002512E050F8042BD3076C
:102F700044BF4A44521E091F042942F8045BFAD296
:102F800013468C0744BF15809B1CC90748BF1D70A2
:102F900050F8041B0029E8D130BC704710B5074930
:102FA00079441831064C7C44163404E00A68081D44
:102FB000114488470146A142F8D110BD2C00000001
:102FC000480000004EF68851CEF20001086840F437
:102FD00070000860BFF34F8FBFF36F8F4FF0017029
:102FE000E1EE100A704700007DFFFFFF680000005F
:102FF00098010020000000004FE5FFFFD401000011
:103000002C000000000000200248016841F470011B
:103010000160704788ED00E0000000000000000043
:10302000010203040607080900F00DF8002801D08A
:10303000FFF7B4FFAFF300800020AFF30080FDF78F
:10304000EBFE00F002F80120704700F001B800002C
:103050000746384600F002F8FBE7000080B5AFF302
:103060000080024A11001820ABBEFBE726000200D8
:103070000548014603B4684680F30988AFF3008031
:10308000FFF7A0FFFFF7D0FFA5EDF5FE0148804751
:1030900001480047093000087130000800000000B6
:1030A00001020304FFF7FEBFFFF7FEBFFFF7FEBFFD
:1030B000FFF7FEBFFFF7FEBFFFF7FEBFFFF7FEBF44
:1030C000FFF7FEBFFFF7FEBFFFF7FEBFFFF7FEBF34
:1030D000FFF7FEBFFFF7FEBFFFF7FEBFFFF7FEBF24
:1030E000FFF7FEBFFFF7FEBFFFF7FEBFFFF7FEBF14
:1030F000FFF7FEBFFFF7FEBFFFF7FEBFFFF7FEBF04
:10310000FFF7FEBFFFF7FEBFFFF7FEBFFFF7FEBFF3
:10311000FFF7FEBFFFF7FEBFFFF7FEBFFFF7FEBFE3
:10312000FFF7FEBFFFF7FEBFFFF7FEBFFFF7FEBFD3
:10313000FFF7FEBFFFF7FEBFFFF7FEBFFFF7FEBFC3
:10314000FFF7FEBFFFF7FEBFFFF7FEBFFFF7FEBFB3
:10315000FFF7FEBFFFF7FEBFFFF7FEBFFFF7FEBFA3
:10316000FFF7FEBFFFF7FEBFFFF7FEBFFFF7FEBF93
:10317000FFF7FEBFFFF7FEBFFFF7FEBFFFF7FEBF83
:10318000FFF7FEBFFFF7FEBFFFF7FEBFFFF7FEBF73
:10319000FFF7FEBFFFF7FEBFFFF7FEBFFFF7FEBF63
:1031A000FFF7FEBFFFF7FEBFFFF7FEBFFFF7FEBF53
:1031B000FFF7FEBFFFF7FEBFFFF7FEBFFFF7FEBF43
:1031C000FFF7FEBFFFF7FEBFFFF7FEBFFFF7FEBF33
:1031D000B70000C881008100C0000001F9000010A4
:0631E000FC000224F400D3
:04000005080030714E
:00000001FF
